:03000000020003F8
:0C000300787FE4F6D8FD75812002004AE9
:1002A500C0F9A4B0999282F880908883C6C0868EE2
:0202B500BF7F09
:09031400010800010900010A00C2
:0B02FE00EF1FAC0670011E4C70F622D2
:10019B008D80EF603624FB601414601B14602224E6
:1001AB0003702BE5A0541F4480F5A08021E5A054DB
:1001BB001F44A0F5A08017E5A0541F44C0F5A080F4
:1001CB000DE5A0541F44E0F5A0800353A01F53A0DE
:0201DB001F22E1
:0B01550075F00A84E5F09002A593FD10
:10016000AB07AE057401A803088002C333D8FCFDB9
:100170007F0612019BAD060F12019B7FF47E0112D8
:1001800002FEAF037401A807088002C333D8FCFD48
:0B0190007F0612019B7DFF0F02019B08
:0F02C800AE077DFF7F0612019BAD060F02019B63
:1000F800E50A7F07120155E50A75F00A8493FD7F2A
:10010800061201609002B5E493FD7F05120160E5D7
:10011800097F04120155E50975F00A8493FD7F03F0
:100128001201609002B5E493FD7F02120160E508B8
:1001380075F00A84E5F09002A593FD7F0112016035
:0D014800E50875F00A8493FDE4FF020160F4
:100239008F0B8D0C1202D77FA012020D1202B7AFDD
:100249000B12020D1202B7AF0C12020D1202B70205
:0202590002F2AF
:0201DD008F0B86
:1001DF001202D77FA012020D1202B7AF0B12020D3F
:1001EF001202B71202D77FA112020D1202B712022A
:0D01FF005B8F0CD2001202781202F2AF0CDE
:01020C0022CF
:10008F007F011201DD8F087F031201DD8F097F05CC
:10009F001201DD8F0A0508050905097403250AF504
:1000AF000AE508D3940A4003E4F508E509D394144C
:1000BF004003E4F509E50AD3941E4003E4F50AADC5
:1000CF00087F011202397FE87E031202FEAD097F1D
:1000DF00031202397FE87E031202FEAD0A7F05127A
:0900EF0002397FE87E030202FEE3
:10028F00E4FDFF12019B7F0512019B7DFF1F1201F1
:06029F009B7FFF0202C874
:0B03090012028F12008F1200F880FB20
:0402E600D2A07F051E
:0802EA0000AE071FEE70F922BF
:0F02D700D2A11202E6C2A17F051202EAC2A02242
:0C02F200C2A11202E6D2A17F050202EABE
:10027800C2A0A20092A17F051202EA1202E6C2A061
:07028800D2A17F050202EA8A
:1002B7001202E6A2A19200C2A07F051202EAA200E2
:0102C7002214
:02020D00AD073B
:10020F00E4FCC2A07F051202EAED30E704D2A18020
:10021F0002C2A17F051202EAD2A0ED25E0FD7F0503
:09022F001202EA0CBC08DBC2A0BB
:0102380022A3
:10025B00E4FC1202E6ED25E0FD30A103430501C2EB
:0C026B00A07F051202EA0CBC08E8AF05F9
:010277002264
:10000F00020309E493A3F8E493A34003F68001F2FB
:10001F0008DFF48029E493A3F85407240CC8C333F2
:10002F00C4540F4420C8834004F456800146F6DFC1
:10003F00E4800B0102040810204080900314E47E3A
:10004F00019360BCA3FF543F30E509541FFEE493B6
:10005F00A360010ECF54C025E060A840B8E493A37D
:10006F00FAE493A3F8E493A3C8C582C8CAC583CAA8
:10007F00F0A3C8C582C8CAC583CADFE9DEE780BE60
:01031D0000DF
:00000001FF
