:0300000002089E55
:0C089E00787FE4F6D8FD7581070208AAF7
:0D086C00F5807F807E381208797F807E380D
:10087900EF1FAC0670011E4C70F6EF1FAC0670013D
:050889001E4C70F62278
:10084100EF24FB60111460151460192403701BD28E
:10085100A7C2A6C2A522D2A7C2A6D2A522D2A7D23A
:0B086100A6C2A522D2A7D2A6D2A522D3
:100800007F04120841E4FDE4F5801208757580FF4D
:100810001208750DBD03F07D0174FFA80508800264
:10082000C333D8FC12086C0DBD09EE7D0174FFA81E
:1008300005088002C333D8FCF412086C0DBD09ED25
:010840002295
:10088E007F061208417580010F1208417580822281
:0508AA0012080080FBB4
:00000001FF
