:030000000202E118
:0C02E100787FE4F6D8FD75812002032828
:1004ED00C0F9A4B0999282F880908880C6C0868E9B
:0C04FD00BF7F40792430191202780010F3
:100509000114000408000000000210000001150099
:0A051900040C0000000002120000B4
:0B059800EF1FAC0670011E4C70F62235
:100424008D80EF603624FB601414601B146022245A
:1004340003702BE5A0541F4480F5A08021E5A0544F
:100444001F44A0F5A08017E5A0541F44C0F5A08068
:100454000DE5A0541F44E0F5A0800353A01F53A052
:020464001F2255
:03046600E493FD1F
:10046900AB07AE057401A803088002C333D8FCFDAD
:100479007F06120424AD060F1204247FF47E0112B4
:100489000598AF037401A807088002C333D8FCFD9F
:0B0499007F061204247DFF0F020424E4
:0F056200AE077DFF7F06120424AD060F020424AE
:10022B00AE10AF117C007D0A1201C874ED2DF58262
:10023B0074043CF5837F07120466AE10AF117C008B
:10024B007D0A1201C87C007D0A1201C874ED2DF5E0
:10025B008274043CF5837F06120466AE10AF117CEA
:10026B00007D641201C874FF2FF58274043EF58380
:10027B00E493FD7F05120469AE12AF137C007D0A77
:10028B001201C874ED2DF58274043CF583E493FDE3
:10029B007F02120469AE12AF137C007D0A1201C8F3
:1002AB007C007D0A1201C874ED2DF58274043CF5B7
:1002BB0083E493FD7F01120469AE12AF137C007DC2
:1002CB00641201C874FF2FF58274043EF583E49326
:0602DB00FDE4FF020469CE
:0203E0008F1676
:1003E2001205717F901204A4120551E516B401049E
:1003F2007F018007E516B403057F031204A41205EA
:100402005112058C12022B1205717F911204A41253
:1004120005511204D08F17D20012052412058CAF99
:0104220017C2
:0104230022B6
:10036D007F011203E08F14AC14E41201137BA17A08
:10037D00A079A0783C1200038F0B8E0A8D098C0892
:10038D00E4FFFE7DC87C42AB0BAA0AA909A808129E
:10039D0000031201478E108F117F031203E08F159A
:1003AD00AC15E41201137BA17AA079A0783C120060
:1003BD00038F0F8E0E8D0D8C0CE4FFFE7DC87C42DD
:1003CD00AB0FAA0EA90DA80C1200031201478E1235
:0303DD008F132259
:10053B00E4FDFF1204247F051204247DFF1F120427
:06054B00247FFF0205629F
:0B05A30012053B12036D12022B80F8C2
:04058000D2A07F0581
:0805840000AE071FEE70F92222
:0F057100D2A1120580C2A17F05120584C2A0226B
:0C058C00C2A1120580D2A17F05020584E7
:10052400C2A0A20092A17F05120584120580C2A078
:07053400D2A17F050205843E
:10055100120580A2A19200C2A07F05120584A2000B
:010561002277
:0204A400AD07A2
:1004A600E4FCC2A07F05120584ED30E704D2A180EA
:1004B60002C2A17F05120584D2A0ED25E0FD7F05CD
:0904C6001205840CBC08DBC2A085
:0104CF00220A
:1004D000E4FC120580ED25E0FD30A103430501C2D7
:0C04E000A07F051205840CBC08E8AF05E5
:0104EC0022ED
:10000300EC4D6011E8497017ED33EC3304600DE4F7
:10001300FCFFFEFD22E933E8330470F80201B3125A
:10002300017E58046009E4CC24815006285009025B
:1000330001BD2840030201BAC0E0EB4A7044B98015
:1000430006D0E0FB0201A9EF4E701CBD8008EBFF58
:10005300EAFEE9FD80EBE98DF0A4FEE5F00200EC99
:10006300E9CDF9EAFEEBFFEF89F0A4FCE5F0CE89D8
:10007300F0A42EFFE435F0CD89F0A42DFEE435F095
:100083008067EF4E7005BD80D780C3EF8BF0A4ACC3
:10009300F0EE8BF0A42CFCE435F0F8EF8AF0A42CFE
:1000A300E5F038FCE433CB8DF0A42CFCE5F03BF811
:1000B300EE8AF0A42CFCE5F038F8E433CF89F0A401
:1000C3002CFCE5F038CF3400CE89F0A42FFFE5F007
:1000D3003EFEE433C98DF0A42EFEE5F039CD8AF05F
:1000E300A42FFFE5F03EFEE43DFD33D0E0FB5007D7
:1000F3000BBB000F0201BDEC2CFCEF33FFEE33FE14
:06010300ED33FD02019541
:1001090075F020800E75F010800575F0087D007E71
:10011900007F003392D530D50312021DEC33401015
:10012900EF33FFEE33FEED33FDEC33FCD5F0ED227A
:0E013900E5F0247EA2D513CC92E7CDCEFF22B6
:10014700EDD2E7CD33EC3392D524814006E4FFFEB0
:10015700FDFC22FCE4CFCECDCC24E0501174FF800F
:10016700EDC3CC13CCCD13CDCE13CECF13CF0470AC
:07017700F030D5DE02021D8D
:10017E00E9D2E7C933E833F892D5EDD2E7CD33ECC7
:07018E0033FC5002B2D52240
:10019500EC30E7100FBF000C0EBE00080DBD0004CB
:1001A5000BEB6014A2D5EB13FCED92E7FD2274FF77
:1001B500FCFDFEFF22E480F8A2D574FF13FC7D80D0
:0301C500E480EFE4
:1002ED000205A3E493A3F8E493A34003F68001F27F
:1002FD0008DFF48029E493A3F85407240CC8C33312
:10030D00C4540F4420C8834004F456800146F6DFE0
:10031D00E4800B0102040810204080900509E47E62
:10032D00019360BCA3FF543F30E509541FFEE493D5
:10033D00A360010ECF54C025E060A840B8E493A39C
:10034D00FAE493A3F8E493A3C8C582C8CAC583CAC7
:10035D00F0A3C8C582C8CAC583CADFE9DEE780BE7F
:0105230000D7
:1001C800BC000BBE0029EF8DF084FFADF022E4CC1B
:1001D800F875F008EF2FFFEE33FEEC33FCEE9DECE4
:1001E800984005FCEE9DFE0FD5F0E9E4CEFD22ED2A
:1001F800F8F5F0EE8420D21CFEADF075F008EF2F74
:10020800FFED33FD4007985006D5F0F222C398FD64
:050218000FD5F0EA2201
:0E021D00C3E49FFFE49EFEE49DFDE49CFC22F2
:00000001FF
