:0300000002022BCE
:0C022B00787FE4F6D8FD75812002027295
:1004E800C0F9A4B0999282F880908880C6C0868EA0
:0C04F800BF7F40792430191202780010F8
:10053300010900040A00000000020F0000010E017F
:03054300010801AB
:0B058E00EF1FAC0670011E4C70F6223F
:1003DD008D80EF603624FB601414601B14602224A2
:1003ED0003702BE5A0541F4480F5A08021E5A05497
:1003FD001F44A0F5A08017E5A0541F44C0F5A080B0
:10040D000DE5A0541F44E0F5A0800353A01F53A099
:02041D001F229C
:03041F00E493FD66
:10042200AB07AE057401A803088002C333D8FCFDF4
:100432007F061203DDAD060F1203DD7FF47E01128B
:10044200058EAF037401A807088002C333D8FCFDF0
:0B0452007F061203DD7DFF0F0203DDBB
:0F055800AE077DFF7F061203DDAD060F0203DD48
:1002B700AE0FAF107C007D0A1201C874E82DF582DD
:1002C70074043CF5837F0712041FAE0FAF107C0048
:1002D7007D0A1201C87C007D0A1201C874E82DF559
:1002E7008274043CF5837F0612041FAE0FAF107CA7
:1002F700007D641201C874FA2FF58274043EF583F9
:10030700E493FD7F051204229004F8E493FD7F0235
:10031700120422E5089004E893FD7F01120422905D
:0A03270004F8E493FDE4FF02042251
:100331001205677F9012045D1205477F4312045D29
:100341001205471205821202B71205677F91120446
:100351005D1205471204CB8F09D20012051C12054C
:1003610082AC09E41201137BA17AA079A0783C1236
:1003710000038F0D8E0C8D0B8C0AE4FFFE7DC87C73
:1003810042AB0DAA0CA90BA80A1200031201478E59
:040391000F8F102298
:1004AB008F111205677F9012045D1205477F43126F
:1004BB00045D120547AF1112045D12054702058258
:1003950020B3447FF47E0112058E20B33AE508B4FC
:1003A50001107508027FCC1204AB750F0175109012
:1003B500801DE508B402057508038013E508B4033C
:1003C5000E7508017F661204AB750F007510C82005
:0803D500B3051202B780F82203
:10048900E4FDFF1203DD7F051203DD7DFF1F12036B
:10049900DD7FFF1205587F661204AB750F007510DA
:0204A900C82267
:10050400120489E508B40308120331AF091204ABDD
:080514001203951202B780EBFF
:04057600D2A07F058B
:08057A0000AE071FEE70F9222C
:0F056700D2A1120576C2A17F0512057AC2A02289
:0C058200C2A1120576D2A17F0502057A05
:10051C00C2A0A20092A17F0512057A120576C2A094
:07052C00D2A17F0502057A50
:10054700120576A2A19200C2A07F0512057AA20029
:010557002281
:02045D00AD07E9
:10045F00E4FCC2A07F0512057AED30E704D2A1803B
:10046F0002C2A17F0512057AD2A0ED25E0FD7F051E
:09047F0012057A0CBC08DBC2A0D6
:010488002251
:1004CB00E4FC120576ED25E0FD30A103430501C2E6
:0C04DB00A07F0512057A0CBC08E8AF05F4
:0104E70022F2
:10000300EC4D6011E8497017ED33EC3304600DE4F7
:10001300FCFFFEFD22E933E8330470F80201B3125A
:10002300017E58046009E4CC24815006285009025B
:1000330001BD2840030201BAC0E0EB4A7044B98015
:1000430006D0E0FB0201A9EF4E701CBD8008EBFF58
:10005300EAFEE9FD80EBE98DF0A4FEE5F00200EC99
:10006300E9CDF9EAFEEBFFEF89F0A4FCE5F0CE89D8
:10007300F0A42EFFE435F0CD89F0A42DFEE435F095
:100083008067EF4E7005BD80D780C3EF8BF0A4ACC3
:10009300F0EE8BF0A42CFCE435F0F8EF8AF0A42CFE
:1000A300E5F038FCE433CB8DF0A42CFCE5F03BF811
:1000B300EE8AF0A42CFCE5F038F8E433CF89F0A401
:1000C3002CFCE5F038CF3400CE89F0A42FFFE5F007
:1000D3003EFEE433C98DF0A42EFEE5F039CD8AF05F
:1000E300A42FFFE5F03EFEE43DFD33D0E0FB5007D7
:1000F3000BBB000F0201BDEC2CFCEF33FFEE33FE14
:06010300ED33FD02019541
:1001090075F020800E75F010800575F0087D007E71
:10011900007F003392D530D50312021DEC33401015
:10012900EF33FFEE33FEED33FDEC33FCD5F0ED227A
:0E013900E5F0247EA2D513CC92E7CDCEFF22B6
:10014700EDD2E7CD33EC3392D524814006E4FFFEB0
:10015700FDFC22FCE4CFCECDCC24E0501174FF800F
:10016700EDC3CC13CCCD13CDCE13CECF13CF0470AC
:07017700F030D5DE02021D8D
:10017E00E9D2E7C933E833F892D5EDD2E7CD33ECC7
:07018E0033FC5002B2D52240
:10019500EC30E7100FBF000C0EBE00080DBD0004CB
:1001A5000BEB6014A2D5EB13FCED92E7FD2274FF77
:1001B500FCFDFEFF22E480F8A2D574FF13FC7D80D0
:0301C500E480EFE4
:10023700020504E493A3F8E493A34003F68001F2D4
:1002470008DFF48029E493A3F85407240CC8C333C8
:10025700C4540F4420C8834004F456800146F6DF97
:10026700E4800B0102040810204080900533E47EEF
:10027700019360BCA3FF543F30E509541FFEE4938C
:10028700A360010ECF54C025E060A840B8E493A353
:10029700FAE493A3F8E493A3C8C582C8CAC583CA7E
:1002A700F0A3C8C582C8CAC583CADFE9DEE780BE36
:0105460000B4
:1001C800BC000BBE0029EF8DF084FFADF022E4CC1B
:1001D800F875F008EF2FFFEE33FEEC33FCEE9DECE4
:1001E800984005FCEE9DFE0FD5F0E9E4CEFD22ED2A
:1001F800F8F5F0EE8420D21CFEADF075F008EF2F74
:10020800FFED33FD4007985006D5F0F222C398FD64
:050218000FD5F0EA2201
:0E021D00C3E49FFFE49EFEE49DFDE49CFC22F2
:00000001FF
