:03000000020003F8
:0C000300787FE4F6D8FD75810C02004AFD
:1001A400C0F9A4B0999282F880908880C6C0868EE7
:0201B400BF7F0B
:0901DB00010AFF010800010900FE
:0B016C00AD0A7F0412008F7FC87E00E8
:100177008E0B8F0CE50C150CAE0B7002150B4E6039
:070187000512014480EE2285
:0B01C500EF1FAC0670011E4C70F6220C
:10008F008D80EF603624FB601414601B14602224F3
:10009F0003702BE5A0541F4480F5A08021E5A054E8
:1000AF001F44A0F5A08017E5A0541F44C0F5A08001
:1000BF000DE5A0541F44E0F5A0800353A01F53A0EB
:0200CF001F22EE
:1000D100AB07AE057401A803088002C333D8FCFD49
:1000E1007F0612008FAD060F12008F7FF47E011282
:1000F10001C5AF037401A807088002C333D8FCFD12
:0B0101007F0612008F7DFF0F02008FB1
:0F01B600AE077DFF7F0612008FAD060F02008F90
:10014400E50875F00A84E5F09001A493FD7F071299
:1001540000D1E50875F00A8493FD7F061200D1E50D
:080164000993FDE4FF0200D144
:10010C00530A7F12016C430A8012016C0508E50842
:10011C00B46403E4F508E50A5403FFBF0305530A6E
:10012C00FC8003430A03AD0A7F0412008F0509E526
:08013C0009B40A03E4F50922ED
:10018E00E4FDFF12008F7F0512008F7DFF1F12000E
:06019E008F7FFF0201B695
:0B01D00012018E12010C12014480F895
:10000F000201D0E493A3F8E493A34003F68001F236
:10001F0008DFF48029E493A3F85407240CC8C333F2
:10002F00C4540F4420C8834004F456800146F6DFC1
:10003F00E4800B01020408102040809001DBE47E75
:10004F00019360BCA3FF543F30E509541FFEE493B6
:10005F00A360010ECF54C025E060A840B8E493A37D
:10006F00FAE493A3F8E493A3C8C582C8CAC583CAA8
:10007F00F0A3C8C582C8CAC583CADFE9DEE780BE60
:0101E400001A
:00000001FF
