:03000000020800F3
:0C080000787FE4F6D8FD75810A020847F5
:1009A900C0F9A4B0999282F880908880C6C0868EDA
:0209B900BF7FFE
:0909D600010A00010900010800FA
:10093600EF24FB60111460151460192403701BD298
:10094600A7C2A6C2A522D2A7C2A6D2A522D2A7D244
:0B095600A6C2A522D2A7D2A6D2A522DD
:1009610075F00A8493FF1D12098B7FF47E01120931
:0F097100809009B9E41D93FF12098B7FF47E017A
:0B098000EF1FAC0670011E4C70F62249
:10098B00AE077F06120936AF057401A8070880026F
:0E099B00C333D8FCF5807F071209368E802208
:10088C00E50875F00A84E5F09009A97D071209774F
:10089C00E508120961E50975F00A84E5F09009A9EB
:1008AC00120976E509120961E50A75F00A84E5F08A
:1008BC009009A9120976E50A75F00A8493FF1D12B6
:0908CC00098B7FF47E0102098012
:1009BB00758901758C3C758AAFD2A9D2AFD28C22C6
:03000B00020909DE
:10090900C0E0C0D0758C3C758AAF0508E508B41401
:10091900170509750800E509B43C05050A750900BC
:0D092900E50AB46303750A00D0D0D0E032B7
:1008D50020B3147F647E0012098020B30AB28C20F5
:1008E500B30512088C80F820B2197F647E001209C6
:1008F5008020B20FE4F50AF509F50820B2051208C3
:040905008C80F822C8
:0B09CB001209BB12088C1208D580F83E
:10080C000209CBE493A3F8E493A34003F68001F22E
:10081C0008DFF48029E493A3F85407240CC8C333ED
:10082C00C4540F4420C8834004F456800146F6DFBC
:10083C00E4800B01020408102040809009D6E47E6D
:10084C00019360BCA3FF543F30E509541FFEE493B1
:10085C00A360010ECF54C025E060A840B8E493A378
:10086C00FAE493A3F8E493A3C8C582C8CAC583CAA3
:10087C00F0A3C8C582C8CAC583CADFE9DEE780BE5B
:0109DF000017
:00000001FF
