:03000000020800F3
:0C080000787FE4F6D8FD75810B020847F4
:1008F4005468652053797374656D2069732072752B
:100904006E6E696E67210D0A0057656C636F6D65C5
:0B09140020746F20757365210D0A0030
:0309A800010B0040
:1008C900EF24FB60111460151460192403701BD206
:1008D900A7C2A6C2A522D2A7C2A6D2A522D2A7D2B2
:0B08E900A6C2A522D2A7D2A6D2A5224B
:100987007F051208C9E4F5801F1208C97580FF2288
:10095D00758920758DFD758BFDD28E759850E4F5DA
:06096D008ED2ACD2AF22D5
:0300230002099738
:0909970030980585990BC29832D5
:0809A0008F993099FDC29922E4
:10091F008B088A09890AAB08AA09A90A1209446037
:10092F0013050AE50A7002050914F9120944FF12AA
:05093F0009A080E22286
:10088C00E50B603854F02450601424F060222420CE
:10089C00702AE50BF444F0FFE580440F800DE50B66
:1008AC00F4C454F0440FFFE58044F05FF5808009F8
:0D08BC007BFF7A0879F412091FE4F50B2286
:1009730012098712095D7BFF7A09790D12091F128B
:04098300088C80FB61
:10080C00020973E493A3F8E493A34003F68001F286
:10081C0008DFF48029E493A3F85407240CC8C333ED
:10082C00C4540F4420C8834004F456800146F6DFBC
:10083C00E4800B01020408102040809009A8E47E9B
:10084C00019360BCA3FF543F30E509541FFEE493B1
:10085C00A360010ECF54C025E060A840B8E493A378
:10086C00FAE493A3F8E493A3C8C582C8CAC583CAA3
:10087C00F0A3C8C582C8CAC583CADFE9DEE780BE5B
:0109AB00004B
:10094400BB010689828A83E0225002E722BBFE02B1
:09095400E32289828A83E49322E4
:00000001FF
