:030000000208AA49
:0C08AA00787FE4F6D8FD7581070208BFD6
:0D088800F5807F807E381208957F807E38D5
:10089500EF1FAC0670011E4C70F6EF1FAC06700121
:0508A5001E4C70F6225C
:10085D00EF24FB60111460151460192403701BD272
:10086D00A7C2A6C2A522D2A7C2A6D2A522D2A7D21E
:0B087D00A6C2A522D2A7D2A6D2A522B7
:0908B6007F0512085DE4F58022C3
:100800007F0412085DE4FDE4F5801208917580FF15
:100810001208910DBD03F07D0174FFA80508800248
:10082000C333D8FC1208880DBD09EE7D0174FFA802
:1008300005088002C333D8FCF41208880DBD09ED09
:100840007F0512085D75804012088A7F0512085DD9
:0D085000E4F5801208917F807E3802089543
:0808BF001208B612080080F8CF
:00000001FF
