:03000000020800F3
:0C080000787FE4F6D8FD75810A020847F5
:09092600010A00010800010900AA
:09093000E5A0541F4480F5A0224B
:0E090000758901758CFF758A9BD2A9D2AF2232
:03000B000208CF19
:1008CF00C0E0C0D0758CFF758A9B050AE50AD395E9
:1008DF00085004C2808015E50AC394645004D28086
:1008EF00800AE50AB46405C280750A00D0D0D0E052
:0108FF0032C6
:0B091B00EF1FAC0670011E4C70F622AE
:10088C0020B03F7F647E0012091B20B035E50914AF
:10089C00601614601B14602024037023C280D28C59
:1008AC0075080A7509018017750832750902800FE1
:1008BC0075085A7509038007D280C28CE4F509309B
:0308CC00B0FD225A
:0D090E00120930D28012090012088C80FB03
:10080C0002090EE493A3F8E493A34003F68001F2EB
:10081C0008DFF48029E493A3F85407240CC8C333ED
:10082C00C4540F4420C8834004F456800146F6DFBC
:10083C00E4800B0102040810204080900926E47E1D
:10084C00019360BCA3FF543F30E509541FFEE493B1
:10085C00A360010ECF54C025E060A840B8E493A378
:10086C00FAE493A3F8E493A3C8C582C8CAC583CAA3
:10087C00F0A3C8C582C8CAC583CADFE9DEE780BE5B
:01092F0000C7
:00000001FF
