:0300000002085A99
:0C085A00787FE4F6D8FD75810702086F76
:100800007F607EEA1208127F607EEA1208127F6023
:020810007EEA7E
:10081200EF1FAC0670011E4C70F6EF1FAC067001A4
:050822001E4C70F622DF
:09086600E5A0541F4480F5A02216
:10084900120866C28012080ED2807F607EEA020812
:01085900128C
:07087700D288D2A8D2AF2203
:03000300020827C9
:10082700C0E0C0D075D000C004C006C007C28712A0
:100837000800120800D287D007D006D004D0D0D045
:02084700E0329D
:08086F0012087712084980FB12
:00000001FF
