:03000000020924CE
:0C092400787FE4F6D8FD75810C02096BA9
:100A5F00C0F9A4B0999282F880904079243019128D
:040A6F0002780010F9
:0B0A9300020B00000209000001080037
:100A4500758CFF758AFF758D3C758BB0758916D2CF
:0A0A5500A9D2ABD2AFD28CD28E2210
:03000B00020A8660
:0D0A8600C0E0050CE50C7002050BD0E0325D
:03001B00020A05D1
:100A0500C0E0C0D0758D3C758BB00508E508B41401
:100A15000F850B09850C0A750B00750C00750814FC
:050A2500D0D0D0E0324A
:100800007D8EE4FF120A2A7F647E00120AAB7DFF10
:100810007F01120A2A7F647E00120AAB7DFF7F02ED
:10082000120A2A7F647E00120AABD3E50A940FE510
:100830000994274024AE09AF0A7C277D101209B025
:10084000745F2FF582740A3EF583E493FD7F0312F3
:100850000A2A7F647E00120AABD3E50A94E7E50911
:100860009403402BAE09AF0A7C037DE81209B07CEB
:10087000007D0A1209B0745F2DF582740A3CF5837D
:10088000E493FD7F04120A2A7F647E00120AABD330
:10089000E50A9463E50994004030AE09AF0A7C0094
:1008A0007D641209B07C007D0A1209B0745F2DF5D9
:1008B00082740A3CF583E493FD7F05120A2A7F6463
:1008C0007E00120AAB7FFF120A9FD3E50A9409E566
:1008D000099400402BAE09AF0A7C007D0A1209B0D2
:1008E0007C007D0A1209B0745F2DF582740A3CF514
:1008F00083E493FD7F06120A2A7F647E00120AAB0E
:10090000AE09AF0A7C007D0A1209B0745F2DF58232
:10091000740A3CF583E493FD7F07120A2A7F647E04
:0409200000020AAB1C
:100A730090800074FFF090A000E4F0120A45120881
:030A83000080FBF5
:0B0AAB00EF1FAC0670011E4C70F6221D
:100A2A0090E00074FFF07401A807088002C333D86D
:0B0A3A00FC90C000F090E000EDF02206
:0C0A9F0090C00074FFF090E000EFF02227
:10093000020A73E493A3F8E493A34003F68001F260
:1009400008DFF48029E493A3F85407240CC8C333C8
:10095000C4540F4420C8834004F456800146F6DF97
:10096000E4800B0102040810204080900A93E47E8A
:10097000019360BCA3FF543F30E509541FFEE4938C
:10098000A360010ECF54C025E060A840B8E493A353
:10099000FAE493A3F8E493A3C8C582C8CAC583CA7E
:1009A000F0A3C8C582C8CAC583CADFE9DEE780BE36
:010A9E000057
:1009B000BC000BBE0029EF8DF084FFADF022E4CC2B
:1009C000F875F008EF2FFFEE33FEEC33FCEE9DECF4
:1009D000984005FCEE9DFE0FD5F0E9E4CEFD22ED3A
:1009E000F8F5F0EE8420D21CFEADF075F008EF2F84
:1009F000FFED33FD4007985006D5F0F222C398FD75
:050A00000FD5F0EA2211
:00000001FF
