:03000000020003F8
:0C000300787FE4F6D8FD75812002004AE9
:1002BF00C0F9A4B0999282F880908883C6C0868EC8
:0202CF00BF7FEF
:09033200010800010900010A00A4
:0402E2007F647E00B7
:0B02E600EF1FAC0670011E4C70F622EA
:10019F008D80EF603624FB601414601B14602224E2
:1001AF0003702BE5A0541F4480F5A08021E5A054D7
:1001BF001F44A0F5A08017E5A0541F44C0F5A080F0
:1001CF000DE5A0541F44E0F5A0800353A01F53A0DA
:0201DF001F22DD
:0B01590075F00A84E5F09002BF93FDF2
:10016400AB07AE057401A803088002C333D8FCFDB5
:100174007F0612019FAD060F12019F7FF47E0112CC
:1001840002E6AF037401A807088002C333D8FCFD5C
:0B0194007F0612019F7DFF0F02019FFC
:0F02F100AE077DFF7F0612019FAD060F02019F32
:1000FC00E50A7F07120159E50A75F00A8493FD7F22
:10010C00061201649002CFE493FD7F05120164E5B1
:10011C00097F04120159E50975F00A8493FD7F03E8
:10012C001201649002CFE493FD7F02120164E50892
:10013C0075F00A84E5F09002BF93FD7F0112016413
:0D014C00E50875F00A8493FDE4FF020164EC
:100269008F0B8D0C1203007FA012023D1202D1AF39
:100279000B12023D1202D1AF0C12023D1202D10241
:02028900031B55
:0201E1008F0B82
:1001E3001203007FA012023D1202D1AF0B12023D97
:1001F3001202D11203007FA112023D1202D1120298
:0D0203008B8F0CD2001202A812031BAF0C4F
:0102100022CB
:10008F0020B3211202E220B31B0508E508D3940D1B
:10009F004003E4F508AD08E4FF12026920B305122E
:1000AF0000FC80F820B2211202E220B21B0509E504
:1000BF0009D3940D4003E4F509AD097F01120269DC
:1000CF0020B2051200FC80F820B1211202E220B10B
:1000DF001B050AE50AD3940D4003E4F50AAD0A7F28
:0D00EF000212026920B1051200FC80F82207
:10021100E4FDFF12019F7F0512019F7DFF1F120167
:100221009F7FFF1202F1E4FF1201E18F087F0112AB
:0C02310001E18F097F021201E18F0A2217
:0B03270012021112008F1200FC80F87F
:04030F00D2A07F05F4
:0803130000AE071FEE70F92295
:0F030000D2A112030FC2A17F05120313C2A022C4
:0C031B00C2A112030FD2A17F0502031340
:1002A800C2A0A20092A17F0512031312030FC2A0DD
:0702B800D2A17F0502031330
:1002D10012030FA2A19200C2A07F05120313A20074
:0102E10022FA
:02023D00AD070B
:10023F00E4FCC2A07F05120313ED30E704D2A180C6
:10024F0002C2A17F05120313D2A0ED25E0FD7F05A9
:09025F001203130CBC08DBC2A061
:010268002273
:10028B00E4FC12030FED25E0FD30A103430501C291
:0C029B00A07F051203130CBC08E8AF059F
:0102A7002234
:10000F00020327E493A3F8E493A34003F68001F2DD
:10001F0008DFF48029E493A3F85407240CC8C333F2
:10002F00C4540F4420C8834004F456800146F6DFC1
:10003F00E4800B0102040810204080900332E47E1C
:10004F00019360BCA3FF543F30E509541FFEE493B6
:10005F00A360010ECF54C025E060A840B8E493A37D
:10006F00FAE493A3F8E493A3C8C582C8CAC583CAA8
:10007F00F0A3C8C582C8CAC583CADFE9DEE780BE60
:01033B0000C1
:00000001FF
