:03000000020800F3
:0C080000787FE4F6D8FD758109020847F6
:1009C400C0F9A4B0999282F880908880C6C0868EBF
:0209D400BF7FE3
:0409E4000208000104
:0B09AE00E40D93FF1209907FF47E011E
:0B09B900EF1FAC0670011E4C70F62210
:10094400EF24FB60111460151460192403701BD28A
:10095400A7C2A6C2A522D2A7C2A6D2A522D2A7D236
:0B096400A6C2A522D2A7D2A6D2A522CF
:10099000AE077F06120944AF057401A8070880025C
:0E09A000C333D8FCF5807F071209448E8022F5
:10088C009009C6E493FFE4FD1209B29009C4120961
:10089C00AEA31209AE9009CC1209AE9009D412097C
:1008AC00AE1209AEAE08AF097C007D0A1208EF74D7
:1008BC00C42FF58274093EF583E47D061209B0AEAF
:1008CC0008AF097C007D0A1208EF74C42DF5827400
:1008DC00093CF583E493FF7D071209907FF47E01B8
:0308EC000209B945
:0E09D600AB07AF031BEF600512088C80F52203
:10096F0012088C0509E50970020508D3940CE508F7
:10097F00940040067508007509017F641209D6803E
:01098F00DF88
:10080C0002096FE493A3F8E493A34003F68001F28A
:10081C0008DFF48029E493A3F85407240CC8C333ED
:10082C00C4540F4420C8834004F456800146F6DFBC
:10083C00E4800B01020408102040809009E4E47E5F
:10084C00019360BCA3FF543F30E509541FFEE493B1
:10085C00A360010ECF54C025E060A840B8E493A378
:10086C00FAE493A3F8E493A3C8C582C8CAC583CAA3
:10087C00F0A3C8C582C8CAC583CADFE9DEE780BE5B
:0109E800000E
:1008EF00BC000BBE0029EF8DF084FFADF022E4CCED
:1008FF00F875F008EF2FFFEE33FEEC33FCEE9DECB6
:10090F00984005FCEE9DFE0FD5F0E9E4CEFD22EDFB
:10091F00F8F5F0EE8420D21CFEADF075F008EF2F45
:10092F00FFED33FD4007985006D5F0F222C398FD36
:05093F000FD5F0EA22D3
:00000001FF
