:0300000002000EED
:0C000E00787FE4F6D8FD758120020055D3
:10019B00C0F9A4B0999282F880908883C6C0868EED
:0201AB00BF7F14
:0901DF00010A1CC1000208000025
:0B01C900EF1FAC0670011E4C70F62208
:10009A008D80EF603624FB601414601B14602224E8
:1000AA0003702BE5A0541F4480F5A08021E5A054DD
:1000BA001F44A0F5A08017E5A0541F44C0F5A080F6
:1000CA000DE5A0541F44E0F5A0800353A01F53A0E0
:0200DA001F22E3
:1000DC00AB07AE057401A803088002C333D8FCFD3E
:1000EC007F0612009AAD060F12009A7FF47E011261
:1000FC0001C9AF037401A807088002C333D8FCFD03
:0B010C007F0612009A7DFF0F02009A90
:0F01AD00AE077DFF7F0612009AAD060F02009A83
:10014D00E50A75F00A84E5F090019B93FD7F071297
:0F015D0000DCE50A75F00A8493FD7F060200DCE2
:0D01BC00758CD9758AF0D2A9D2AFD28C22F1
:03000B000201856A
:10018500C0E0758CD9758AF03000080509E509705D
:06019500020508D0E03273
:1001170020B3327FE87E031201C920B328E4F50833
:10012700F509D20020B30512014D80F8C200D3E5CE
:10013700099464E508940040028007050AE50AB4BB
:060147006403E4F50A2246
:10016C00E4FDFF12009A7F0512009A7DFF1F12001A
:09017C009A7FFF1201AD0201BCE3
:0B01D40012016C12011712014D80F89F
:10001A000201D4E493A3F8E493A34003F68001F227
:10002A0008DFF48029E493A3F85407240CC8C333E7
:10003A00C4540F4420C8834004F456800146F6DFB6
:10004A00E4800B01020408102040809001DFE47E66
:10005A00019360BCA3FF543F30E509541FFEE493AB
:10006A00A360010ECF54C025E060A840B8E493A372
:10007A00FAE493A3F8E493A3C8C582C8CAC583CA9D
:10008A00F0A3C8C582C8CAC583CADFE9DEE780BE55
:0101E8000016
:00000001FF
