:030000000208A251
:0C08A200787FE4F6D8FD75811D0208E99E
:1009E800C0F9A4B0999282F8809040792430191205
:0409F8000278001071
:1009B100071680828486888A8C070F8183858789C0
:0B09C1008B8D07082459231804062022
:10096400E4FD7F8E1209FCE4F51D7416251DF8E6DE
:10097400FF7408251DF8E6FD1209FC051DC3E51DDD
:0D0984006480948740E47D807F8E0209FC32
:10099100E4F51D740F251DF8E6FF12092E740825D4
:0F09A1001DF8A607051DC3E51D6480948740E47B
:0109B0002224
:10080000E50AC4540F9009E893FDE4FF1209CD7F77
:10081000647E00120A55E50A540F9009E893FD7FA3
:10082000011209CD7F647E00120A557DBF7F02123E
:1008300009CD7F647E00120A55E509C4540F900962
:10084000E893FD7F031209CD7F647E00120A55E50F
:1008500009540F9009E893FD7F041209CD7F647E4F
:1008600000120A557DBF7F051209CD7F647E0012FC
:100870000A55E508C4540F9009E893FD7F06120954
:10088000CD7F647E00120A55E508540F9009E89365
:10089000FD7F071209CD7F647E00120A557FFF029B
:0208A0000A4903
:100A100090800074FFF07F607EEA120A5590A0007B
:030A2000E4F022DD
:100A2300120A101209641209911208007FFF120AB8
:030A33004980F304
:100A3600E4FEC297EF1392A3EFC313FFD2970EBE45
:020A460008F0B6
:010A4800228B
:1009FC00C29300C29700D29300120A36AF05120AB6
:040A0C0036C2932239
:10092E00E4FDC29300C29700D29300120A36E4FF90
:10093E00C297EDC313FD30A303430580D2970FBFBB
:10094E0008EEC29300C293C29700D29700C2A300D2
:05095E00D2A300AF056B
:010963002271
:0B0A5500EF1FAC0670011E4C70F62273
:1009CD0090E00074FFF07401A807088002C333D8CB
:0B09DD00FC90C000F090E000EDF02264
:0C0A490090C00074FFF090E000EFF0227D
:1008AE00020A23E493A3F8E493A34003F68001F233
:1008BE0008DFF48029E493A3F85407240CC8C3334B
:1008CE00C4540F4420C8834004F456800146F6DF1A
:1008DE00E4800B01020408102040809009B1E47EF0
:1008EE00019360BCA3FF543F30E509541FFEE4930F
:1008FE00A360010ECF54C025E060A840B8E493A3D6
:10090E00FAE493A3F8E493A3C8C582C8CAC583CA00
:10091E00F0A3C8C582C8CAC583CADFE9DEE780BEB8
:0109CC00002A
:00000001FF
