:0300000002091FD3
:0C091F00787FE4F6D8FD75810802092BF2
:10090D00C0F9A4B0999282F880908880C6C0868E76
:02091D00BF7F9A
:0109300022A4
:0708F500E50890090D93FFD7
:1008FC00AE077F061209307580010F1209308E8009
:01090C0022C8
:10080000C2B0D2B3D2B2D2B1D2B4D2B5D2C2D2C4B3
:1008100020C40830C4FDE4F508801F20C20830C29F
:10082000FD750801801420B50830B5FD75080280FB
:100830000920B40930B4FD7508031208F5C2B1D21D
:10084000B3D2B2D2B0D2B4D2B5D2C2D2C420C408CC
:1008500030C4FD750804801F20C20830C2FD750831
:1008600005801420B50830B5FD750806800920B450
:100870000930B4FD7508071208F5C2B2D2B3D2B17F
:10088000D2B0D2B4D2B5D2C2D2C420C40830C4FDD2
:10089000750808801F20C20830C2FD750809801441
:1008A00020B50830B5FD75080A800920B40930B4B8
:1008B000FD75080B1208F5C2B3D2B2D2B1D2B0D2D4
:1008C000B4D2B5D2C2D2C420C40830C4FD75080C5D
:1008D000801F20C20830C2FD75080D801420B508A5
:1008E00030B5FD75080E800920B40930B4FD7508D7
:0508F0000F1208F522C3
:05092B0012080080FB32
:00000001FF
