:03000000020800F3
:0C080000787FE4F6D8FD758108020847F7
:0308F700010800F5
:10088C007F607EEA12089E7F607EEA12089E7F607F
:02089C007EEAF2
:10089E00EF1FAC0670011E4C70F6EF1FAC06700118
:0508AE001E4C70F62253
:0908E300E5A0541F4480F5A02299
:1008C7001208E3C28012089AD2807F607EEA02088B
:0108D7009E82
:0708EC00D288D2A8D2AF228E
:030003000208F3FD
:0408F3007508013251
:1008B300E5086401700AC28712088C12088CD2877B
:0408C300E4F508222E
:0B08D8001208EC1208C71208B380F8E9
:10080C000208D8E493A3F8E493A34003F68001F222
:10081C0008DFF48029E493A3F85407240CC8C333ED
:10082C00C4540F4420C8834004F456800146F6DFBC
:10083C00E4800B01020408102040809008F7E47E4D
:10084C00019360BCA3FF543F30E509541FFEE493B1
:10085C00A360010ECF54C025E060A840B8E493A378
:10086C00FAE493A3F8E493A3C8C582C8CAC583CAA3
:10087C00F0A3C8C582C8CAC583CADFE9DEE780BE5B
:0108FA0000FD
:00000001FF
