:030000000208995A
:0C089900787FE4F6D8FD7581070208A501
:10083000EF24FB60111460151460192403701BD29F
:10084000A7C2A6C2A522D2A7C2A6D2A522D2A7D24B
:0B085000A6C2A522D2A7D2A6D2A522E4
:0B085B007F607EEA1208667F607EEA84
:10086600EF1FAC0670011E4C70F6EF1FAC06700150
:050876001E4C70F6228B
:10087B007F041208307580F012085B75800F120828
:0E088B005B7580FF1208627F607EEA020866DD
:10080000E4FD7F061208307401A805088002C33396
:10081000D8FCF5807F07120830E4F58012085B0DE4
:10082000BD08DF7580FF1208627F607EEA020866FD
:0808A50012087B12080080F824
:00000001FF
