:0300000002088B68
:0C088B00787FE4F6D8FD75810702087E36
:04086F007F647E0024
:0B087300EF1FAC0670011E4C70F62257
:10084400EF24FB60111460151460192403701BD28B
:10085400A7C2A6C2A522D2A7C2A6D2A522D2A7D237
:0B086400A6C2A522D2A7D2A6D2A522D0
:090897007F05120844E4F58022FB
:100800007580FF20B00D12086F20B007C28030B095
:10081000FDD28020B10D12086F20B107C28130B126
:10082000FDD28120B20D12086F20B207C28230B211
:10083000FDD28220B30D12086F20B307C28330B3FC
:04084000FDD2832240
:0D087E001208977F0412084412080080FB46
:00000001FF
