:03000000020800F3
:0C080000787FE4F6D8FD758108020847F7
:03095B0001080090
:10090E00EF24FB60111460151460192403701BD2C0
:10091E00A7C2A6C2A522D2A7C2A6D2A522D2A7D26C
:0B092E00A6C2A522D2A7D2A6D2A52205
:090952007F0512090EE4F5802274
:040939007F647E0059
:0B093D00EF1FAC0670011E4C70F6228C
:10088C0020B01E12093920B018E5087007C2807517
:10089C000801800AE508B40105D280E4F50830B0FF
:1008AC00FD20B11E12093920B118E5087007C2816C
:1008BC00750802800AE508B40205D281E4F5083017
:1008CC00B1FD20B22012093920B21AE508B4010991
:1008DC00C28230B2FDD282800CE508B40207C28419
:1008EC0030B2FDD28420B319E508B40108C28330BC
:1008FC00B3FDD28322E508B40207C28530B3FDD222
:02090C00852242
:0A0948007F0412090E12088C80FBD8
:10080C00020948E493A3F8E493A34003F68001F2B1
:10081C0008DFF48029E493A3F85407240CC8C333ED
:10082C00C4540F4420C8834004F456800146F6DFBC
:10083C00E4800B010204081020408090095BE47EE8
:10084C00019360BCA3FF543F30E509541FFEE493B1
:10085C00A360010ECF54C025E060A840B8E493A378
:10086C00FAE493A3F8E493A3C8C582C8CAC583CAA3
:10087C00F0A3C8C582C8CAC583CADFE9DEE780BE5B
:01095E000098
:00000001FF
